:100000000C9462000C948A000C948A000C948A0070
:100010000C948A000C948A000C948A000C948A0038
:100020000C948A000C948A000C948A000C948A0028
:100030000C948A000C948A000C948A000C948A0018
:100040000C9419060C948A000C94E7050C94C105D5
:100050000C948A000C948A000C948A000C948A00F8
:100060000C9463060C948A00000000002400270012
:100070002A0000000000250028002B0000000000DE
:1000800023002600290004040404040404040202DA
:100090000202020203030303030301020408102007
:1000A0004080010204081020010204081020000012
:1000B0000008000201000003040700000000000027
:1000C0000000820711241FBECFEFD8E0DEBFCDBFF6
:1000D00011E0A0E0B1E0E8ECF4E102C005900D927F
:1000E000AE37B107D9F723E0AEE7B1E001C01D920A
:1000F000A130B207E1F710E0C2E6D0E004C02197DA
:10010000FE010E945C0AC136D107C9F70E94CC07E4
:100110000C94620A0C94000008950895AF92BF9267
:10012000CF92DF92EF92FF920F931F93CF93DF93C3
:100130006C017B018B01040F151FEB015E01AE18F2
:10014000BF08C017D10759F06991D601ED91FC9114
:100150000190F081E02DC6010995892B79F7C50141
:10016000DF91CF911F910F91FF90EF90DF90CF9093
:10017000BF90AF900895FC01538D448D252F30E042
:10018000842F90E0821B930B541710F0CF960895A4
:1001900001970895FC01918D828D981761F0A28DD1
:1001A000AE0FBF2FB11D5D968C91928D9F5F9F7397
:1001B000928F90E008958FEF9FEF0895FC01918D4D
:1001C000828D981731F0828DE80FF11D858D90E0BA
:1001D00008958FEF9FEF0895FC01918D228D892F57
:1001E00090E0805C9F4F821B91098F73992708953F
:1001F0008CE492E00E94EC0021E0892B09F420E0DD
:10020000822F089580E090E0892B29F00E94F80069
:1002100081110C9400000895FC01A48DA80FB92F42
:10022000B11DA35ABF4F2C91848D90E001968F731E
:100230009927848FA689B7892C93A089B1898C913D
:10024000837080648C93938D848D981306C002888C
:10025000F389E02D80818F7D80830895EF92FF9256
:100260000F931F93CF93DF93EC0181E0888F9B8DD9
:100270008C8D98131AC0E889F989808185FF15C093
:100280009FB7F894EE89FF896083E889F9898081B6
:100290008370806480839FBF81E090E0DF91CF9185
:1002A0001F910F91FF90EF900895F62E0B8D10E0A7
:1002B0000F5F1F4F0F731127E02E8C8D8E110CC016
:1002C0000FB607FCFACFE889F989808185FFF5CF61
:1002D000CE010E940C01F1CFEB8DEC0FFD2FF11D33
:1002E000E35AFF4FF0829FB7F8940B8FEA89FB899E
:1002F00080818062CFCFCF93DF93EC01888D8823FC
:10030000B9F0AA89BB89E889F9898C9185FD03C078
:10031000808186FD0DC00FB607FCF7CF8C9185FF5D
:10032000F2CF808185FFEDCFCE010E940C01E9CF95
:10033000DF91CF910895833081F028F4813099F0D6
:100340008230A9F008958730A9F08830C9F0843050
:10035000B1F4809180008F7D03C0809180008F7701
:1003600080938000089584B58F7784BD089584B507
:100370008F7DFBCF8091B0008F778093B000089580
:100380008091B0008F7DF9CFCF93DF93282F30E09D
:10039000F901E255FF4F8491F901E656FF4FD491E0
:1003A000F901EA57FF4FC491CC23A1F081110E94BB
:1003B0009B01EC2FF0E0EE0FFF1FE458FF4FA591DB
:1003C000B491EC91ED2381E090E009F480E0DF91BD
:1003D000CF91089580E090E0FACF1F93CF93DF9301
:1003E000282F30E0F901E255FF4F8491F901E656DC
:1003F000FF4FD491F901EA57FF4FC491CC23A9F0E4
:10040000162F81110E949B01EC2FF0E0EE0FFF1FD1
:10041000EE58FF4FA591B4918FB7F894EC9111115C
:1004200008C0D095DE23DC938FBFDF91CF911F9161
:100430000895DE2BF8CFCF93DF9390E0FC01E656D2
:10044000FF4F24918A579F4FFC0184918823D1F05C
:1004500090E0880F991FFC01E859FF4FA591B491D6
:10046000FC01EE58FF4FC591D491623071F49FB7F3
:10047000F8943C91822F809583238C93E8812E2BD6
:1004800028839FBFDF91CF9108958FB7F894EC91A7
:100490002E2B2C938FBFF6CF3FB7F8948091350267
:1004A00090913602A0913702B091380226B5A89BF0
:1004B00005C02F3F19F00196A11DB11D3FBFBA2FF6
:1004C000A92F982F8827BC01CD01620F711D811DB6
:1004D000911D42E0660F771F881F991F4A95D1F73B
:1004E00008958F929F92AF92BF92CF92DF92EF9238
:1004F000FF924B015C010E944C026B017C010E9447
:100500004C026C197D098E099F09683E7340810574
:100510009105A8F321E0821A9108A108B10888EE9C
:10052000C80E83E0D81EE11CF11C81149104A104C3
:10053000B10429F7FF90EF90DF90CF90BF90AF907C
:100540009F908F90089508952091BF01260F332723
:10055000331F21323105ECF420910802FC0190E0B8
:1005600080E0243069F082E00895A091BF012191DC
:10057000AC0141565E4FA40FB52FB11D2C930196CF
:10058000861798F38091BF01680F6093BF0180E0E8
:10059000089581E008951092080281E08093070297
:1005A0001092E20161E082E10E94ED0161E083E1ED
:1005B0000E94ED01E9EBF0E080818E7F80838081F5
:1005C0008D7F808388E48093B80085E48093BC00AD
:1005D0000895CF93DF9391E090939E018823B9F023
:1005E000C091B800D091BA008091BC008A7B809302
:1005F000BC0060E082E10E94ED0160E083E10E94C6
:10060000ED010E94CB02D093BA00C093B800DF91F5
:10061000CF9108950895E091400280913F02E8173C
:1006200030F4F0E0E258FE4F808190E008958FEFC3
:100630009FEF08959091400280913F022FEF3FEF8E
:10064000981748F4E92FF0E0E258FE4F208130E09F
:100650009F5F90934002C901089580913F0290915D
:100660004002891B990B0895CF92DF92EF92FF927F
:100670000F931F93CF93DF937C01CB018A012091CD
:100680000E02222389F0EB016B01C40ED51ECC159E
:10069000DD0569F06991D701ED91FC910190F08140
:1006A000E02DC7010995F3CF642F0E94A402C80171
:1006B000DF91CF911F910F91FF90EF90DF90CF903E
:1006C0000895CF93DF931F92CDB7DEB76983209152
:1006D0000E022223F9F020913D02203258F021E051
:1006E00030E0FC013383228390E080E00F90DF91C3
:1006F000CF91089580913E02E82FF0E0E15FFD4F39
:10070000998190838F5F80933E0280933D0281E0C8
:1007100090E0ECCF61E0CE0101960E94A402F7CFF9
:10072000CF92DF92EF92FF920F931F93CF93DF93BD
:10073000FC01C48121E020930E02C0932F0210928D
:100740003E0210923D028385682B89EE92E00E9462
:100750006103D0913D02D13208F092C00E944C0258
:100760006B017C0180910802811165C082E0809359
:10077000080281E0809307028FEF809306021092B7
:100780000502D0930402AFE0B2E0E4EEF1E080E0D5
:10079000D81385C01092E3018091E301CC0FC82BE0
:1007A000C093E3018091E201813009F07CC0109296
:1007B000E2010E944C026B017C018091E301809375
:1007C000BB0080910A0290910B02A0910C02B091A3
:1007D0000D02892B8A2B8B2B99F00E944C020091E1
:1007E0000A0210910B0220910C0230910D026C193B
:1007F0007D098E099F090617170728073907E0F1B9
:100800008091BC0083FDD9CF85EC8093BC000E9411
:100810004C026B017C0180910802823009F445C0D2
:10082000809106028F3F61F180910602803241F192
:100830008091060225C080910A0290910B02A0913E
:100840000C02B0910D02892B8A2B8B2B09F48ACFD5
:100850000E944C0200910A0210910B0220910C029E
:1008600030910D026C197D098E099F090617170733
:100870002807390708F076CF809109020E94E90223
:1008800010923E0210923D0210920E02DF91CF9123
:100890001F910F91FF90EF90DF90CF9008959D9161
:1008A00091938F5F75CF85EEB0CF80910A029091C2
:1008B0000B02A0910C02B0910D02892B8A2B8B2B7D
:1008C00009F4A9CF0E944C0200910A0210910B0278
:1008D00020910C0230910D026C197D098E099F093F
:1008E000061717072807390708F095CFC5CF90E0FE
:1008F00080E008950F931F93CF938C01C62F0E9421
:1009000090036C2F6460C8010E9490036C2F6B7F72
:10091000C8010E94900383EC90E00197F1F7CF911A
:100920001F910F9108950F931F93CF93DF938C0125
:10093000D62FC42F607F642B0E947A0480E1D89F59
:10094000B00111246C2BC801DF91CF911F910F9141
:100950000C947A04CF93DF93CDB7DEB728970FB608
:10096000F894DEBF0FBECDBF98E0E2E0F1E0DE011B
:10097000119601900D929A95E1F79091FE029617CB
:1009800010F46FEF690F262F30E0220F331F41E084
:1009900050E04C0F5D1F240F351FF9016081680F77
:1009A000606840E085EF92E028960FB6F894DEBFCD
:1009B0000FBECDBFDF91CF910C94930441E00E9414
:1009C00093040895FB0101900020E9F73197AF01EE
:1009D000461B570BDC01ED91FC910280F381E02D69
:1009E00009944F925F926F927F92AF92BF92CF9293
:1009F000DF92EF92FF920F931F93CF93DF93CDB7C8
:100A0000DEB7A1970FB6F894DEBF0FBECDBF5C0175
:100A10006A017B01F7FE47C0DC01ED91FC9101907A
:100A2000F081E02D6DE209958C0122273327A90181
:100A30002C193D094E095F0919A2FE01B1967F01EB
:100A40009AE0492E512C612C712CCA01B901A301E5
:100A500092010E943A0A605DD7016E937D012115D3
:100A600031054105510589F790E080E0109721F0AC
:100A7000BD01C5010E94E204800F911FA1960FB62F
:100A8000F894DEBF0FBECDBFDF91CF911F910F91C4
:100A9000FF90EF90DF90CF90BF90AF907F906F90DE
:100AA0005F904F900895AB01960119A28E010F5DE2
:100AB0001F4F8AE0C82ED12CE12CF12CCA01B901BC
:100AC000A70196010E943A0A605DF80162938F01C6
:100AD000211531054105510589F790E080E03097F7
:100AE00069F2BF01C5010E94E204C8CFCF93DF9332
:100AF000BC018CE492E00E94E204EC016AE371E044
:100B00008CE492E00E94E2048C0F9D1FDF91CF9154
:100B1000089585ED8093BC0080910A0290910B02AC
:100B2000A0910C02B0910D020796A11DB11D23E00A
:100B3000B695A795979587952A95D1F72091BC00F2
:100B400024FD03C010920802089540910A025091BA
:100B50000B0260910C0270910D02452B462B472B26
:100B600069F30097A105B10541F025E32A95F1F756
:100B700000000197A109B109E1CF809109020C940D
:100B8000E9021F920F920FB60F9211242F933F93F9
:100B90004F935F936F937F938F939F93AF93BF9385
:100BA000EF93FF938CE492E00E940C01FF91EF9190
:100BB000BF91AF919F918F917F916F915F914F9175
:100BC0003F912F910F900FBE0F901F9018951F927D
:100BD0000F920FB60F9211242F938F939F93EF9341
:100BE000FF93E0915C02F0915D028081E0916202EE
:100BF000F091630282FD1BC09081809165028F5F3E
:100C00008F7320916602821741F0E0916502F0E057
:100C1000E45BFD4F958F80936502FF91EF919F916B
:100C20008F912F910F900FBE0F901F90189580817C
:100C3000F4CF1F920F920FB60F9211242F933F9370
:100C40008F939F93AF93BF93809131029091320223
:100C5000A0913302B09134023091300223E0230F8F
:100C60002D3758F50196A11DB11D209330028093B8
:100C7000310290933202A0933302B09334028091F8
:100C8000350290913602A0913702B0913802019658
:100C9000A11DB11D8093350290933602A0933702B7
:100CA000B0933802BF91AF919F918F913F912F9157
:100CB0000F900FBE0F901F90189526E8230F0296F5
:100CC000A11DB11DD2CF1F920F920FB60F9211240A
:100CD0002F933F934F935F936F937F938F939F9344
:100CE000AF93BF93EF93FF938091B900887F8036D5
:100CF00009F44AC0F0F5883209F4A7C018F580312C
:100D000009F49BC0B8F4882309F4F9C0883009F4C9
:100D100094C0FF91EF91BF91AF919F918F917F917F
:100D20006F915F914F913F912F910F900FBE0F9058
:100D30001F901895883109F488C0803251F780934C
:100D4000060214C0803409F49DC040F48033B9F326
:100D50008833F9F68093060285ECB0C0803509F43B
:100D600085C0883509F496C0883499F60E948905B3
:100D7000D0CF883909F48CC038F5883729F050F481
:100D8000883611F0803729F683E0809308021092AC
:100D9000E10157C0883809F47BC0803919F08038E8
:100DA00009F0B7CF8091E101803208F071C0E09185
:100DB000E10181E08E0F8093E1018091BB00F0E0C2
:100DC000EF53FE4F80833DC0803B39F0E0F4803A22
:100DD00009F479C0883A09F09CCF84E08093080236
:100DE0001092C0011092BF01E0913B02F0913C02D1
:100DF00009958091BF0181110FC081E08093BF01EF
:100E000010929F0109C0803C09F4A6CF883C09F4E8
:100E1000A3CF883B09F07DCFE091C00181E08E0F28
:100E20008093C001F0E0E156FE4F80818093BB00CB
:100E30009091C0018091BF0129C08091E30180930E
:100E4000BB0085EC8093BC0064CF9091050280913B
:100E50000402981758F5E091050281E08E0F809307
:100E60000502F0E0EC51FE4F8081E9CFE0910502F0
:100E700081E08E0F809305028091BB00F0E0EC5181
:100E8000FE4F808390910502809104029817C8F26A
:100E900085E8D8CFE091050281E08E0F80930502AE
:100EA0008091BB00F0E0EC51FE4F808380910702FF
:100EB00081115CCF81E08093E20184EA8093BC00E1
:100EC0001092080226CF85EC8093BC001092080295
:100ED0008091E101803230F4E091E101F0E0EF53E4
:100EE000FE4F10826091E10170E0E0913902F091D3
:100EF0003A0281EC91E009951092E1010ACF10923B
:100F0000060234CFECE4F2E01382128288EE93E022
:100F1000A0E0B0E084839583A683B7832EE031E020
:100F20003183208325EC30E03587248724EC30E0C2
:100F30003787268720EC30E0318B208B21EC30E0A6
:100F4000338B228B22EC30E0358B248B26EC30E087
:100F5000378B268B118E128E138E148EE9EEF2E0F3
:100F60001382128284839583A683B78380E291E003
:100F700091838083E5EFF2E01382128282E391E0B5
:100F80009183808387E2848384E1808784E0818702
:100F9000128688E083870895789484B5826084BD42
:100FA00084B5816084BD85B5826085BD85B581606D
:100FB00085BD80916E00816080936E0010928100EB
:100FC00080918100826080938100809181008160A6
:100FD0008093810080918000816080938000809167
:100FE000B10084608093B1008091B00081608093F3
:100FF000B00080917A00846080937A0080917A00BA
:10100000826080937A0080917A00816080937A0078
:1010100080917A00806880937A001092C100E091FC
:101020005C02F0915D0282E08083E0915802F091D1
:1010300059021082E0915A02F0915B028FEC80839A
:1010400010926402E0916002F091610286E0808378
:10105000E0915E02F0915F02808180618083E09187
:101060005E02F0915F02808188608083E0915E0281
:10107000F0915F02808180688083E0915E02F09150
:101080005F0280818F7D808362E089E00E941B0285
:1010900062E08AE00E941B0261E085E00E941B0280
:1010A00061E086E00E941B021092400210923F0213
:1010B00010923E0210923D020E94CB028CE890E01A
:1010C00090933C0280933B028DE890E090933A022B
:1010D000809339021092FA028091FE02823018F059
:1010E00098E09093FA029091FF02992339F08130B1
:1010F00029F48091FA0284608093FA0262E370E03E
:1011000080E090E00E9471026091000385EF92E020
:101110000E94900368EE73E080E090E00E9471020C
:1011200060E385EF92E00E947A04CBE4D6E4CE013E
:101130000197F1F760E385EF92E00E947A0421972E
:10114000F1F760E385EF92E00E947A0483E592E094
:101150000197F1F760E285EF92E00E947A046091D6
:10116000FA02606240E085EF92E00E94930484E01E
:101170008093FB0240E06CE085EF92E00E949304D4
:1011800040E061E085EF92E00E949304CBE3DFE171
:10119000CE010197F1F782E08093FC0240E066E027
:1011A00085EF92E00E94930440E062E085EF92E0D8
:1011B0000E9493042197F1F788E08093000360E098
:1011C00085EF92E00E94900360E080E00E94AA0414
:1011D0006DE371E085EF92E00E94E20461E082E05D
:1011E0000E94AA044091490250914A02052E000C27
:1011F000660B770B85EF92E00E94F10483EBE82EFB
:1012000080E0F82E00E010E0DD24D39489E00E9415
:10121000C401909344028093430220914102309193
:10122000420282179307C9F1892B09F0D3C0D092EB
:101230004B028091490290914A02019690934A0292
:101240008093490280910001909101010196909351
:101250000101809300018CE491E00E9476056FE427
:1012600071E08CE492E00E94E204409149025091C6
:101270004A02052E000C660B770B8CE492E00E946C
:10128000F1046AE371E08CE492E00E94E20462E31C
:1012900070E080E090E00E947102809143029091A2
:1012A000440290934202809341028AE00E94C4016A
:1012B0009093480280934702209145023091460264
:1012C00082179307C9F1892B09F089C0D0924B028C
:1012D0008091490290914A02019790934A0280932B
:1012E00049028091000190910101019790930101C1
:1012F000809300018CE491E00E9476056FE471E038
:101300008CE492E00E94E2044091490250914A022A
:10131000052E000C660B770B8CE492E00E94F10422
:101320006AE371E08CE492E00E94E20462E370E020
:1013300080E090E00E947102809147029091480203
:10134000909346028093450280914B028823B1F12D
:1013500010924B0261E082E00E94AA046DE671E007
:1013600085EF92E00E94E20461E082E00E94AA041C
:101370004091490250914A02052E000C660B770BF2
:1013800085EF92E00E94F10462E082E00E94AA04EC
:1013900061E086E00E941B0260E086E00E94ED01B1
:1013A000C0910001D091010161E085E00E941B0223
:1013B0002097D1F460E085E00E94ED010115110550
:1013C00009F424CF0E94F800882309F41FCF0E945B
:1013D00000001CCF89E691E00E94760558CF89E68F
:1013E00091E00E947605A2CFCF3FD10511F461E0D4
:1013F000E2CFF7018491833019F140F48130B1F0EC
:101400008230C9F0C038D10594F7D4CF873011F1BC
:10141000883041F18430B1F7809180008062809300
:101420008000D0938B00C0938A00C8CF84B58068B9
:1014300084BDC7BDC3CF84B5806284BDC8BDBECFE7
:1014400080918000806880938000D0938900C09351
:101450008800B4CF8091B00080688093B000C093C2
:10146000B300ACCF8091B00080628093B000C09395
:10147000B400A4CFA1E21A2EAA1BBB1BFD010DC014
:10148000AA1FBB1FEE1FFF1FA217B307E407F50734
:1014900020F0A21BB30BE40BF50B661F771F881F10
:1014A000991F1A9469F760957095809590959B01A6
:1014B000AC01BD01CF010895EE0FFF1F0590F4911F
:0814C000E02D0994F894FFCF20
:1014C80064000000400014005400000000002E01D9
:1014D8008E00BB007B01EC00CA00DE0000000000AB
:1014E8006103340377040A032D031A030B03000076
:1014F8000000DE048E007704A3020D0A00506C651C
:101508006173652053656C6563743A006F6E006E95
:10151800756D626572206F6620627574746F6E20D7
:101528007075736865733A20006F66660020202026
:0E153800202020202020202020202020000025
:00000001FF
